:100000000C9434000C9451000C9451000C94510049
:100010000C9451000C9451000C9451000C9451001C
:100020000C9451000C9451000C9451000C9451000C
:100030000C9451000C9451000C946A000C945100E3
:100040000C9451000C9451000C9451000C945100EC
:100050000C9451000C9451000C9451000C945100DC
:100060000C9451000C94510011241FBECFEFD8E026
:10007000DEBFCDBF11E0A0E0B1E0EAEFFCE002C0DE
:1000800005900D92AE31B107D9F721E0AEE1B1E0B4
:1000900001C01D92AA32B207E1F70E94E4010C945C
:1000A0007B060C940000E82FF0E0E05FFE4F8081BB
:1000B0008BB9623009F45F9828B181E090E0AC011F
:1000C00002C0440F551F6A95E2F7BA01609562239A
:1000D00068B908951F920F920FB60F9211242F93B3
:1000E0003F934F935F936F937F938F939F93AF93C0
:1000F000BF93EF93FF9388B18F6088B980912101FE
:100100008130A1F028F0823001F1833021F128C044
:1001100080912001882329F060E08BE00E94530049
:100120001FC060E08CE00E9453001AC0809126013D
:10013000811105C061E08CE00E94530011C08091E4
:10014000260161E00E9453000BC08091240162E00F
:100150000E94530005C08091250163E00E94530076
:10016000809121018F5F8093210180912101843052
:1001700011F410922101FF91EF91BF91AF919F91E6
:100180008F917F916F915F914F913F912F910F9040
:100190000FBE0F901F901895CF93DF9300D0CDB76F
:1001A000DEB79A83898329813A81369527953695DA
:1001B000279536952795A5ECB0E20E946C0692959E
:1001C00082958F7089279F708927809327014981A5
:1001D0005A819A0136952795369527953695279514
:1001E0000E946C06929582958F7089279F7089274F
:1001F00068EE73E0869F9001879F300D969F300DCB
:100200001124CA01821B930B9A83898329813A8125
:100210003695279536952795ABE7B4E10E946C0695
:10022000969587958093260149815A819A01369542
:100230002795369527950E946C069695879564E6D6
:10024000689F9001699F300D1124CA01821B930B96
:100250009A83898329813A81ADECBCEC0E946C06BB
:100260009695879596958795969587958093240181
:1002700049815A819A010E946C06969587959695B8
:100280008795969587959C01220F331F880F991F9C
:10029000880F991F880F991F820F931F9A01281B9F
:1002A000390B3A83298389819A81809325010F90A4
:1002B0000F90DF91CF91089523B130E0082E02C056
:1002C000359527950A94E2F720FD13C0EBEBF2E099
:1002D0003197F1F700C0000023B130E0A90102C05E
:1002E000559547958A95E2F7CA0151E085278170B7
:1002F000089580E008958CE0809327018093260183
:10030000809324018093250160E00E94530061E006
:100310008CE00E94530062E08CE00E94530063E096
:100320008CE00E945300089580911F01811103C049
:10033000449A45980895459A44980895CF92DF923B
:10034000EF92FF9220E030E040E251E40E94090683
:100350006B017C0120E030E0A9010E942305882385
:1003600044F4F7FAF094F7F8F09481E080932001D8
:1003700002C010922001C701B6010E942705CB01DF
:100380000E94CC00FF90EF90DF90CF900895809175
:100390001F0190E00E9462040E949E01089521E0E6
:1003A00001C0220F8A95EAF78CE098B1922798B99C
:1003B0003FEF44E39CE0315040409040E1F700C003
:1003C0000000815091F7089590E080E80FB6F8940E
:1003D00080936100909361000FBE8AB18FEF8AB95C
:1003E00087B18F6387B988B18F6088B922982398C5
:1003F000249885B18C6185B982E084BD97E297BD70
:1004000080936E0085E085BD78940E949401F12C64
:10041000D0E0C1E003C0FC2E01C0FD2E82E00E94AE
:100420005C01882399F0F110F9CF80911F018111AF
:1004300003C0C0931F0102C0D0931F010E947B0123
:100440000E9494010E94C701FC2EE8CF83E00E9425
:100450005C01882309F454C0F110E0CF80911E01A3
:10046000813029F120F0823009F442C0D4CFC0930A
:100470001E010E947B0180911F0181110CC06091BF
:100480000C0170910D0180910E0190910F010E945D
:100490009E01FC2EC3CF60910401709105018091F3
:1004A0000601909107010E949E01FC2EB7CF82E0C9
:1004B00080931E010E947B0180911F0181110CC05D
:1004C000609108017091090180910A0190910B01DE
:1004D0000E949E01FC2EA2CF60910001709101014B
:1004E00080910201909103010E949E01FC2E96CF03
:1004F000D0931E010E947B010E94C701FC2E8ECF6B
:1005000084E00E945C018823C9F1F11087CF8091BB
:100510001F01811118C08AE999E9A1EBB2E4809327
:100520000C0190930D01A0930E01B0930F018093E5
:10053000080190930901A0930A01B0930B0184E094
:100540000E94CF0117C08AE999E9A1EBB2E4809338
:10055000040190930501A0930601B09307018093D5
:10056000000190930101A0930201B093030185E083
:100570000E94CF010E949401FC2E50CF80911E0159
:100580008111B2C080912201909123014E9708F40D
:10059000ABC00E94C701109223011092220180E09B
:1005A00090E00E9462046B017C0120910C0130916B
:1005B0000D0140910E0150910F010E9423058823E7
:1005C00084F060910C0170910D0180910E01909169
:1005D0000F012AE939E941EB52E40E942305811118
:1005E00009C0C0920C01D0920D01E0920E01F09270
:1005F0000F0126C0209108013091090140910A01A4
:1006000050910B01C701B6010E940506181684F02F
:10061000609108017091090180910A0190910B018C
:100620002AE939E941EB52E40E942305811108C00F
:10063000C0920801D0920901E0920A01F0920B01E8
:1006400081E090E00E9462046B017C012091040132
:100650003091050140910601509107010E94230548
:10066000882384F060910401709105018091060156
:10067000909107012AE939E941EB52E40E942305F0
:1006800081110AC0C0920401D0920501E0920601D6
:10069000F0920701FD2EC2CE2091000130910101A0
:1006A0004091020150910301C701B6010E94050665
:1006B000181684F06091000170910101809102018F
:1006C000909103012AE939E941EB52E40E942305A4
:1006D0008111A3CEC0920001D0920101E0920201EB
:1006E000F0920301FD2E9ACE809122019091230178
:1006F000019690932301809322012FEF80E792E0EF
:10070000215080409040E1F700C00000FD2E86CED1
:1007100045B1E8E2F1E081E090E09C01008002C098
:10072000220F331F0A94E2F72095242325B924B120
:10073000008002C0880F991F0A94E2F7822B84B9C7
:100740008FEB93E00197F1F700C0000044B121E086
:1007500030E0C9010090280102C0880F991F0A9457
:10076000E2F78095842384B990EA9A95F1F743B132
:10077000C9010090280102C0880F991F0A94E2F76E
:100780008423E7E4F3E03197F1F700C00000089517
:1007900095B1E8E2F1E021E030E0A901008002C07B
:1007A000440F551F0A94E2F74095492345B994B187
:1007B000008002C0220F331F0A94E2F7292B24B9CC
:1007C00092E09A95F1F700C0882371F044B121E0DE
:1007D00030E0C9010090280102C0880F991F0A94D7
:1007E000E2F78095842384B980EA8A95F1F744B1D1
:1007F00021E030E0C9010090280102C0880F991F54
:100800000A94E2F78095842384B9089545B1E8E21B
:10081000F1E081E090E09C01008002C0220F331FD4
:100820000A94E2F72095242325B924B1008002C060
:10083000880F991F0A94E2F7822B84B982E08A9587
:10084000F1F700C044B121E030E0C9010090280177
:1008500002C0880F991F0A94E2F78095842384B917
:1008600095E29A95F1F7000083B190E0009028019D
:1008700002C0959587950A94E2F7817098E79A955A
:10088000F1F70895CF93DF93D82FC8E08D2F8170B3
:100890000E94C803D695C150C9F7DF91CF91089542
:1008A000CF93DF93C8E0D0E00E94060420E8829F47
:1008B000C0011124D695D82BC150B1F78D2FDF91EF
:1008C000CF910895CF92DF92EF92FF921F93CF9333
:1008D000DF9390932901809328010E9488038CEC78
:1008E0000E94420484E40E9442040E940604882379
:1008F000E1F30E9488038CEC0E9442048EEB0E947C
:1009000042040E945004C82F0E945004182F0E94D5
:1009100088036C2F62956F70CF70D0E0177020E164
:10092000129FC0011124682B772767FD7095872FD0
:10093000972F0E9455056B017C0181E792E0C89FCB
:10094000B001C99F700DD89F700D112480E090E018
:100950000E94530527E137EB41ED58E30E94090659
:100960009B01AC01C701B6010E94BF04DF91CF918A
:100970001F91FF90EF90DF90CF9008955058BB27C4
:10098000AA270ED008C1F9D030F0FED020F031F403
:100990009F3F11F41EF4EEC00EF4E095E7FBE4C0B7
:1009A000E92F0AD180F3BA17620773078407950706
:1009B00018F071F49EF522C10EF4E0950B2EBA2FBB
:1009C000A02D0B01B90190010C01CA01A001112455
:1009D000FF27591B99F0593F50F4503E68F11A1601
:1009E000F040A22F232F342F4427585FF3CF469592
:1009F00037952795A795F0405395C9F77EF41F16B4
:100A0000BA0B620B730B840BBAF09150A1F0FF0F7D
:100A1000BB1F661F771F881FC2F70EC0BA0F621F69
:100A2000731F841F48F4879577956795B795F79559
:100A30009E3F08F0B3CF9395880F08F09927EE0FEB
:100A40009795879508956CD008F481E00895BCD0FF
:100A500088F09F5790F0B92F9927B751A0F0D1F0A7
:100A6000660F771F881F991F1AF0BA95C9F712C031
:100A7000B13081F0C3D0B1E00895C0C0672F782FA6
:100A80008827B85F39F0B93FCCF38695779567959D
:100A9000B395D9F73EF490958095709561957F4F09
:100AA0008F4F9F4F0895E89409C097FB3EF49095AF
:100AB0008095709561957F4F8F4F9F4F9923A9F037
:100AC000F92F96E9BB279395F695879577956795C6
:100AD000B795F111F8CFFAF4BB0F11F460FF1BC00A
:100AE0006F5F7F4F8F4F9F4F16C0882311F096E99D
:100AF00011C0772321F09EE8872F762F05C066234B
:100B000071F096E8862F70E060E02AF09A95660F03
:100B1000771F881FDAF7880F9695879597F90895BC
:100B2000990F0008550FAA0BE0E8FEEF16161706FE
:100B3000E807F907C0F012161306E407F50798F066
:100B4000621B730B840B950B39F40A2661F0232B7F
:100B5000242B252B21F408950A2609F4A140A695FB
:100B60008FEF811D811D089597F99F6780E870E0E0
:100B700060E008959FEF80EC089500240A94161613
:100B8000170618060906089500240A94121613067B
:100B9000140605060895092E0394000C11F4882309
:100BA00052F0BB0F40F4BF2B11F460FF04C06F5F25
:100BB0007F4F8F4F9F4F089557FD9058440F551FFB
:100BC00059F05F3F71F04795880F97FB991F61F0CF
:100BD0009F3F79F087950895121613061406551F46
:100BE000F2CF4695F1DF08C0161617061806991FB2
:100BF000F1CF86957105610508940895E894BB27A7
:100C000066277727CB0197F908958ADF08F48FEFDD
:100C100008950BD0C0CFB1DF28F0B6DF18F09523D0
:100C200009F0A2CFA7CF1124EACFC6DFA0F3959F8A
:100C3000D1F3950F50E0551F629FF001729FBB27C3
:100C4000F00DB11D639FAA27F00DB11DAA1F649F6F
:100C50006627B00DA11D661F829F2227B00DA11D22
:100C6000621F739FB00DA11D621F839FA00D611DA8
:100C7000221F749F3327A00D611D231F849F600DC9
:100C8000211D822F762F6A2F11249F5750408AF002
:100C9000E1F088234AF0EE0FFF1FBB1F661F771F8E
:100CA000881F91505040A9F79E3F510570F05CCFCE
:100CB000A6CF5F3FECF3983EDCF38695779567957A
:100CC000B795F795E7959F5FC1F7FE2B880F911DAC
:100CD0009695879597F90895A29FB001B39FC0019B
:100CE000A39F700D811D1124911DB29F700D811D58
:0A0CF0001124911D0895F894FFCF20
:100CFA009A99B1429A99B1429A99B1429A99B14252
:0E0D0A00C0F9A4B0999282F880907FBFFF00DC
:00000001FF
